:100000000C94BB010C94EC010C94EC010C94EC01ED
:100010000C94EC010C94EC010C94EC010C94EC01AC
:100020000C94EC010C94EC010C94EC010C94EC019C
:100030000C94EC010C94EC010C94EC010C94EC018C
:100040000C94EC010C94EC010C94EC010C94EC017C
:100050000C94EC010C94EC010C94EC010C94921BAC
:100060000C94EC010C94EC010C94EC010C94EC015C
:100070000C94EC010C94EC010C94EC010C94EC014C
:100080000C94EC010C94EC010C94EC010C94EC013C
:100090000C94EC010C94EC010C94EC010C94EC012C
:1000A0000C94EC010C94EC010C94EC010C94EC011C
:1000B0000C94EC010C94EC010C94EC010C94EC010C
:1000C0000C94EC010C94EC010C94EC010C94EC01FC
:1000D0000C94EC010C94EC010C94EC010C94EC01EC
:1000E0000C94EC01072C7AA5BA6CC590DA3B9365A9
:1000F000FC8BBC53F810FD3C5692834DBD879D3A56
:10010000B63DCBC9BF5BBE73DA0FC93F05A84CCD66
:10011000B2D44EB93836A9020C50B9918688083C41
:10012000A6AAAA2ABE000000803F0C94EA150C94EF
:100130001E080C9459020C9430020C9421060C9465
:1001400061020C941F1B0C948C090C9438080C94BD
:1001500064020C949F0B0C9490020C946E100C94FF
:10016000941A0C9494020C9454100C941F0A0C943E
:10017000C4140C9455020C946E080C94BB250C947A
:1001800016180C9468060C94A7130C941F120C9468
:1001900016060C94F1040C94070C0C9417130C9491
:1001A000DD110C941A080C946A020C9435080C9416
:1001B0002E080C9482020C9482030C9471110C94FE
:1001C0002C130C94DF070C94CC0D0C9474020C943B
:1001D0004F020C940D160C94EE0D0C946E020C94C0
:1001E000DC1B0C94B10D0C9460060C948F020C94E3
:1001F000270E0C9416080C944D0B0C945D060C9471
:1002000086020C945B060C942C020C947C020C94D9
:100210008C130C9451060C9404160C9456160C94E2
:1002200034140C9478020C9437060C94B2110C948C
:100230004D060C94C8070C94530E0C948A020C942F
:100240002C160C94E6170C945D020C9465040C9427
:100250006A17000020002300260029002C002F0030
:1002600032000001000003010601090100000A0B31
:1002700002090C0D0E080703040100000000000035
:10028000000000000000000000000000000000006E
:10029000000000000000000012111000000000002B
:1002A000000000000000000000000000000000004E
:1002B000000000002200250028002B002E00310045
:1002C000340002010000050108010B0100002100BB
:1002D000240027002A002D00300033000101000017
:1002E000040107010A010102102020080810204023
:1002F00010204080020102010804020101020408EA
:100300001020408080402010080402018004020177
:1003100080402010080402010804020101020408C0
:1003200010204080010204081020408005050505CA
:10033000070508080808020202020A0A080804045D
:10034000040401010101010101010303030303038B
:100350000303040707070C0C0C0C0C0C0C0C02021A
:10036000020206060606060606060B0B0B0B0B0B17
:100370000B0BDC1BBB2511241FBECFEFD1E2DEBF70
:10038000CDBF00E00CBF13E0A0E0B2E0EEE0F5E589
:1003900000E00BBF02C007900D92A834B107D9F757
:1003A00028E0A8E4B3E001C01D92A539B207E1F747
:1003B00011E0CAEBD1E000E006C021970109802FCF
:1003C000FE010E94EB25C93BD10780E00807A9F791
:1003D0000E949F1F0C94752A0C9400008CBD9DBD3B
:1003E0000895CF93DF93D62F9C0164E0369527952F
:1003F0006A95E1F7C1E0213C48E034070CF4C0E025
:10040000213C48E03407F8F4F901EE0FFF1FE55AEC
:10041000FA4FA081B18154E0220F331F5A95E1F7C2
:10042000821B930B41E050E060E070E004C0440F99
:10043000551F661F771F8A95D2F7DD2341F04A2B9F
:100440005B2B518340838C2FDF91CF910895409592
:1004500050954A235B23F5CFFC01818D928D089541
:1004600008958150823108F05AC0E82FF0E08827C3
:10047000E35CFD4F8F4F0C94EB255D0261024F0250
:10048000550259028F0264026A026E0274027802F7
:100490007C02820286028F028A029002940280917C
:1004A00080008F77809380000895809180008F7DF9
:1004B000F9CF80918000877FF5CF84B58F7784BD99
:1004C000089584B58F7DFBCF8091B0008F778093A6
:1004D000B00008958091B0008F7DF9CF8091900099
:1004E0008F77809390000895809190008F7DF9CF51
:1004F00080919000877FF5CF8091A0008F778093C7
:10050000A00008958091A0008F7DF9CF8091A00078
:10051000877FF5CF809120018F7780932001089508
:10052000809120018F7DF9CF80912001877FF5CFC9
:100530001F93CF93DF93282F30E0F901E459FD4F4B
:100540008491F901EA51FD4FD491F901E45DFC4F2A
:10055000C491CC23A9F0162F81110E943102EC2FF7
:10056000F0E0EE0FFF1FEE54FD4FA591B4918FB751
:10057000F894EC91111108C0D095DE23DC938FBF65
:10058000DF91CF911F910895DE2BF8CFCF93DF93AA
:1005900090E0FC01EA51FD4F2491845D9C4FFC01E9
:1005A00084918823C9F090E0880F991FFC01E453DF
:1005B000FD4FA591B491FC01EE54FD4FC591D4912E
:1005C00061110DC09FB7F8948C91209582238C9374
:1005D0008881282328839FBFDF91CF9108956230BF
:1005E00051F49FB7F8943C91822F809583238C938C
:1005F000E8812E2BEFCF8FB7F894EC912E2B2C9314
:100600008FBFEACF863308F0865320917B00982F66
:100610009870277F922B90937B00877080648093E3
:100620007C0080917A00806480937A0080917A00C7
:1006300086FDFCCF809178009091790008953FB7B6
:10064000F8948091510390915203A0915303B0917B
:10065000540326B5A89B05C02F3F19F00196A11D94
:10066000B11D3FBFBA2FA92F982F8827BC01CD01FC
:10067000620F711D811D911D42E0660F771F881F5B
:10068000991F4A95D1F708958F929F92AF92BF928A
:10069000CF92DF92EF92FF924B015C010E941F0309
:1006A0006B017C010E941F036C197D098E099F0953
:1006B000683E734081059105A8F321E0821A9108F4
:1006C000A108B10888EEC80E83E0D81EE11CF11C19
:1006D00081149104A104B10429F7FF90EF90DF90F9
:1006E000CF90BF90AF909F908F9008952FB7F894C0
:1006F00060914D0370914E0380914F039091500390
:100700002FBF0895809100029091010201968B30D5
:1007100091052CF49093010280930002089581E0EA
:1007200090E0F8CFDC01ED91FC910190F081E02D9B
:1007300019944F925F926F927F928F929F92AF9295
:10074000BF92CF92DF92EF92FF92CF93DF93EC01B3
:100750000E9476036B017C0188859985AA85BB85FB
:1007600046015701881A990AAA0ABB0A8E869F86F3
:10077000A88AB98AE881F981608D718D072E000CF5
:10078000880B990B0E9420279B01AC016C817D8115
:100790008E819F810E94762620E030E041E655E47C
:1007A0000E94762620E030E04AE754E40E94762654
:1007B0002B013C01C501B4010E941E279B01AC0125
:1007C000C301B2010E941C2820E030E04AE754E453
:1007D0000E9476269B01AC016A897B898C899D8960
:1007E0000E9405266A8B7B8B8C8B9D8BC886D98655
:1007F000EA86FB86DF91CF91FF90EF90DF90CF905C
:10080000BF90AF909F908F907F906F905F904F9030
:100810000895CF92DF92EF92FF920F931F93CF93A1
:10082000DF93EC0108811981EA80FB80F7012489BC
:10083000358946895789668D778D80A191A10E945F
:100840001C28F70122A933A944A955A90E941C28F4
:10085000F70126A937A940AD51AD0E9405266B01CD
:100860007C01F8012489358946895789668D778D01
:1008700080A191A10E941C28F80122A933A944A9B2
:1008800055A90E941C28F80126A937A940AD51ADF1
:100890000E9405269B01AC01C701B6010E941C28DD
:1008A0009B01AC016C817D818E819F810E94052618
:1008B0006C837D838E839F83DF91CF911F910F91F6
:1008C000FF90EF90DF90CF900895CF92DF92EF925C
:1008D000FF920F931F93CF93DF93EC012A813B810B
:1008E0003327F901E459FD4F8491F901EA51FD4F95
:1008F0000491F901E45DFC4F1491112379F0811109
:100900000E943102E12FF0E0EE0FFF1FEE5AFD4F83
:10091000A591B491EC910E2381E009F480E08170FF
:10092000898B9B89891731F00E9476036F8B788FB2
:10093000898F9A8F0E9476030F89188D298D3A8DA1
:100940006B017C01C01AD10AE20AF30A9701860101
:100950004D895E8970E060E089898B8B4017510773
:100960006207730718F58C8BEB8DFC8D309711F0B7
:1009700090E019952F8D38A121153105B9F089899D
:100980009A89891799F041E050E0992311F042E0EB
:1009900050E08A8B2230310591F02330310591F0FF
:1009A0002130310519F44130510561F0DF91CF91CB
:1009B0001F910F91FF90EF90DF90CF9008954230FC
:1009C0005105A1F7ED8DFE8D309781F36A817B8112
:1009D000DF91CF911F910F91FF90EF90DF90CF901B
:1009E00019948F929F92AF92BF92CF92DF92EF9223
:1009F000FF920F931F93CF93DF93EC018A810E94A4
:100A000002038C01C988DA88EB88FC88A70196016B
:100A10006D897E898F89988D0E9404264B015C0127
:100A2000B80190E080E00E941E279B01AC01C50147
:100A3000B4010E941C2820E030EC4FE754E40E94EF
:100A40007626A70196010E9405266B017C018DA5E3
:100A5000811124C08F8D98A1B801681B790B77FF95
:100A600003C0719561957109072E000C880B990BD5
:100A70000E9420274B015C01298D3A8D4B8D5C8DA6
:100A80006DA17EA18FA198A50E941C289B01AC019D
:100A9000C501B4010E94172887FD0DC0C9A2DAA2C2
:100AA000EBA2FCA218A30F8FEBA5FCA5309719F0C1
:100AB000C701B60119951E8F0D8FE9A5FAA53097CC
:100AC00019F0C701B60119951DA6DF91CF911F91AD
:100AD0000F91FF90EF90DF90CF90BF90AF909F90DD
:100AE0008F900895CF93DF93FC01608D718D161662
:100AF00017069CF4EC01072E000C880B990B0E9442
:100B000020279B01AC016A8D7B8D8C8D9D8D0E9471
:100B100076266AA77BA78CA79DA7DF91CF91089522
:100B2000CF92DF92EF92FF92CF93DF93EC01888117
:100B30000E940203BC01990F880B990B0E94202789
:100B40006E877F87888B998B23E631E340EA5BE3EE
:100B50000E941C286B017C01CEA2DFA2E8A6F9A6A8
:100B6000888D998D0196998F888FA70196016A8D3E
:100B70007B8D8C8D9D8D0E9405266A8F7B8F8C8F3F
:100B80009D8F2AA53BA54CA55DA5C701B6010E9476
:100B900004266E8F7F8F88A399A32C893D894E8967
:100BA0005F890E941C282AA93BA94CA95DA90E9423
:100BB0001C282EA93FA948AD59AD0E9405266B01FE
:100BC0007C01AC019B010E941C289B01AC016AA125
:100BD0007BA18CA19DA10E9405266AA37BA38CA367
:100BE0009DA3A70196016A817B818C819D810E94D2
:100BF000712687FF04C0CA82DB82EC82FD82A701D6
:100C000096016E817F81888599850E941728181624
:100C100024F4CE82DF82E886F986C701B601DF912F
:100C2000CF91FF90EF90DF90CF900895FC019485D5
:100C3000FB018485981303C081E0983008F080E0C0
:100C40000895CF93DF931F92CDB7DEB76983DC01A0
:100C5000ED91FC910280F381E02D41E050E0BE0176
:100C60006F5F7F4F19950F90DF91CF910895CF93CC
:100C7000DF931F92CDB7DEB76983DC01ED91FC9164
:100C80000280F381E02D41E050E0BE016F5F7F4FB5
:100C900019950F90DF91CF910895FC0176876587B4
:100CA0000895DC01ED91FC91068CF78DE02D1995EE
:100CB00091E089270895862F089581E08627089579
:100CC00021E0FC018485883008F020E0822F08951F
:100CD0000895FC0120812EBD9B012150310941F076
:100CE00051810DB407FEFDCF4EB55EBD4193F5CFEA
:100CF00061507109860F971F0DB407FEFDCF2EB509
:100D0000FC0120830895E0919E03F0919F03808170
:100D100090919D03892B80830895E0919E03F0912B
:100D20009F03908180919D038095892380830895FE
:100D30008EBD00000DB407FEFDCF8EB50895AF92B5
:100D4000BF92CF92DF92EF92FF920F931F93CF93B8
:100D5000DF9300D000D01F921F92CDB7DEB78C0179
:100D60007B016A018091A1038333E1F45801A40E51
:100D7000B51EA016B10609F46FC00E948D0680EF63
:100D80000E949806812F0E949806802F0E94980644
:100D90000F5F1F4FF70181917F010E9498060E940B
:100DA0008306E7CF5B01A40EB51E8433C1F40E9415
:100DB0008D0619830A838D2D80688B83CC8264E035
:100DC00070E0CE0101960E946906AE14BF0409F4DA
:100DD00041C0F70181917F010E949806F6CF0E94E1
:100DE0008D060F3F110509F028F419820A8384E06B
:100DF0008B830CC017FD17C019820A8333E0169548
:100E000007953A95E1F7007E0C600B8386E0C816E3
:100E1000D104A0F5F701DE011496EA15FB0599F05F
:100E200081918D93FACFC80126E0969587952A95F2
:100E3000E1F7807E19830A830115104C10F4846158
:100E4000D7CF8C61D5CFB6016D5F7F4FCE010196B4
:100E50000E9469060E948306C60128960FB6F89480
:100E6000DEBF0FBECDBFDF91CF911F910F91FF90DD
:100E7000EF90DF90CF90BF90AF90089563E070E067
:100E8000CE0101960E946906F70181917F010E94BF
:100E90009806AE14BF04C1F7DDCFCF93DF931F9246
:100EA000CDB7DEB7898341E050E0BE016F5F7F4F71
:100EB00090E080E00E949F060F90DF91CF9108950F
:100EC00090E02091A103233339F40C96982F990FC9
:100ED000990F990F80E008954896F8CFDA01E091D4
:100EE000A203F0E0FE2FEE27E60FF71F90E0982F09
:100EF0008827A901BD018E0F9F1F0C949F06CF93D9
:100F0000DF931F921F92CDB7DEB779836A8322E009
:100F100030E0AE014F5F5F4F60E170E00E946E070E
:100F20000F900F90DF91CF910895CF93DF931F9291
:100F30001F92CDB7DEB779836A8322E030E0AE013D
:100F40004F5F5F4F64E070E00E946E070F900F905C
:100F5000DF91CF910895CF93DF931F92CDB7DEB786
:100F60002091A20330E0322F2227260F371F90E076
:100F7000982F8827498341E050E0BE016F5F7F4F83
:100F8000820F931F0E949F060F90DF91CF910895CB
:100F9000CF93DF931F92CDB7DEB76983DC01ED916C
:100FA000FC910280F381E02D41E050E0BE016F5FD3
:100FB0007F4F19950F90DF91CF9108950895FF927B
:100FC0000F931F93CF93DF93EB01FC01178A168ACF
:100FD0002A81211109C02B81211106C02C812111E8
:100FE00003C02D81222301F141155105E9F08A0149
:100FF000FC01F08C80E591E00E94EE01AE014E5FB5
:101000005F4F24E030E06CE070E08F2D0E946E07AF
:10101000B8018F2D0E947F0781E090E0DF91CF9192
:101020001F910F91FF90089580E0F7CFFC01848518
:1010300095850895FC018489958908952CE932E00D
:10104000FC0131832083FB014089518962897389C6
:10105000FC0142835383648375830895DC01ED9121
:10106000FC91048CF58DE02D199490E080E00895BA
:101070001F93CF93DF93C0911705D091180520914E
:10108000160511E0120F1093160544E0249F9001FD
:101090001124C20FD31F20E030E046E153E40E9448
:1010A0001C2823E333E749E953E40E94762668834A
:1010B00079838A839B8390911405191710F01092FD
:1010C000160580911505891718F48F5F8093150513
:1010D00010921305DF91CF911F910895CF93DF9365
:1010E0001092C6041092C5041092C7041092C8044E
:1010F0001092C9041092CA041092CF041092D00426
:101100001092D1041092D2041092AF041092B00445
:101110001092B1041092B2041092B3041092B4046D
:101120001092B5041092B60410928C0410928B04A5
:1011300010928D0410928E0410928F0410929004DD
:1011400010929504109296041092970410929804AD
:10115000109275041092760410927704109278041D
:101160001092790410927A0410927B0410927C04FD
:10117000109252041092510410925304109254048D
:10118000109255041092560410925B0410925C0465
:1011900010925D0410925E0410923B0410923C0485
:1011A00010923D0410923E0410923F0410924004AD
:1011B000109241041092420410921B0410921C04DD
:1011C00010921D0410921E041092F9031092FA035B
:1011D0001092FB031092FC03C0EDD7E08DEA94E07F
:1011E0000E94900583E794E00E94900589E394E0D3
:1011F0000E94900587E194E00E94090485EF93E046
:101200000E940904219751F78DEA94E00E9472052B
:1012100083E794E00E94720589E394E00E947205DE
:101220008091230490912404019781F487E194E054
:101230000E94990380910104909102040197B9F4EE
:1012400085EF93E0DF91CF910C94990381E090E0DA
:1012500090932404809323040E94760360931F04D8
:10126000709320048093210490932204E3CF81E0C3
:1012700090E090930204809301040E9476036093AF
:10128000FD037093FE038093FF0390930004DF91AE
:10129000CF9108950F931F93CF938C010F70112757
:1012A000C7E0602F61708C2F0E94980215950795FA
:1012B000CF5FCB30B1F760E082E00E94980261E03E
:1012C00082E00E94980260E082E00E94980261E061
:1012D00070E080E090E0CF911F910F910C94440357
:1012E000CF93DF93EC0160E08CE00E94980290E0E5
:1012F00080E00E944A09CE01DF91CF910C944A0907
:10130000CF93DF93EC0160E08CE00E949802CE0165
:10131000DF91CF910C944A090E94692AFB01019048
:101320000020E9F73197AF01461B570BDC01ED9127
:10133000FC910280F381E02D19948F929F92AF92DD
:10134000BF92EF92FF920F931F93CF93DF93CDB78E
:10135000DEB7A1970FB6F894DEBF0FBECDBF7C01FC
:10136000FA01CB0119A2223008F42AE08E010F5DA8
:101370001F4F822E912CB12CA12CBF01A5019401ED
:101380000E94C925F901CA016A300CF5605DD801D7
:101390006E938D01232B242B252B79F790E080E091
:1013A000109721F0BD01C7010E948E09A1960FB6CA
:1013B000F894DEBF0FBECDBFDF91CF911F910F918B
:1013C000FF90EF90BF90AF909F908F900895695CD1
:1013D000DECFCF92DF92EF92FF920F931F93CF93C6
:1013E000DF936B01770FEE08FF08F7FE1BC0EC01DF
:1013F0006DE20E9492038C0144275527BA014C19D3
:101400005D096E097F092AE0CE010E949D09800FC7
:10141000911FDF91CF911F910F91FF90EF90DF907F
:10142000CF9008952AE0B701A601DF91CF911F91D7
:101430000F91FF90EF90DF90CF900C949D098F92C9
:101440009F92AF92BF92CF92DF92EF92FF920F9353
:101450001F93CF93DF937C018B016C0182E0C80E58
:10146000D11C4701E5E08E0E911CD0E0C0E0F601F2
:1014700041916F0150E070E060E02AE0C8010E94F5
:101480009D095C016EE2C8010E9492038A0D9B1DBA
:10149000C80FD91FC814D90451F7F701458150E08E
:1014A00070E060E02AE0C8010E949D098C0F9D1F3A
:1014B000DF91CF911F910F91FF90EF90DF90CF9030
:1014C000BF90AF909F908F9008952F923F924F9230
:1014D0005F926F927F928F929F92AF92BF92CF92C4
:1014E000DF92EF92FF921F93CF93DF93EC016A019B
:1014F0007B01722EAB019601CB01B6010E94D72869
:101500006EE972E0811126C046015701E894B7F8F0
:101510002FEF3FEF4FE75FE7C501B4010E94D728E7
:1015200081110CC02FEF3FEF4FE75FE7C501B4011A
:101530000E94712662EA72E0181664F02FEF3FEF06
:101540004FE75FE4C701B6010E9417281816B4F4EC
:1015500066EA72E0CE01DF91CF911F91FF90EF908C
:10156000DF90CF90BF90AF909F908F907F906F90C3
:101570005F904F903F902F900C948E092FEF3FEF8C
:101580004FE75FECC701B6010E94712687FDE0CFEF
:1015900020E030E0A901C701B6010E947126312C7C
:1015A000212C87FF09C06DE2CE010E9492031C012D
:1015B000F7FAF094F7F8F09410E060E070E080E063
:1015C0009FE3711641F020E030E040E251E40E94D8
:1015D00076261F5FF6CFA70196010E9405262B01F4
:1015E0003C010E94EF264B015C012AE0BC01A401F2
:1015F000CE010E949D097C01E20CF31C1123C1F174
:10160000C501B4010E941E279B01AC01C301B201B8
:101610000E9404264B015C016EE2CE010E949203FF
:10162000E80EF91E115020F120E030E040E251E4D4
:10163000C501B4010E941C282B013C010E94EF2629
:101640004B01B12CA12C2AE0B501A401CE010E94CE
:101650009D09E80EF91EC501B4010E941E279B01D9
:10166000AC01C301B2010E9404264B015C01DACF38
:10167000C701DF91CF911F91FF90EF90DF90CF9046
:10168000BF90AF909F908F907F906F905F904F90A2
:101690003F902F9008950C948E09FF920F931F9303
:1016A000CF93DF938C01EB01F42E6AEA72E0CE0156
:1016B0000E944B0BF80162817381CE010E94E909FF
:1016C00060EB72E0CE010E944B0BF801868197819E
:1016D00061E4892B09F464E4CE010E9492036CEB6F
:1016E00072E0CE010E944B0BF8014485558566855A
:1016F00077852AE0CE010E949D096EEC72E0CE0152
:101700000E944B0BF801608970E0CE010E94E9094C
:101710006EED72E0CE010E944B0BFF2051F061EEA6
:1017200072E0CE01DF91CF911F910F91FF900C9449
:101730008E09DF91CF911F910F91FF900895FF9235
:101740000F931F93CF93DF938C01EB01F42E40E0B6
:101750000E944D0B64EE72E0CE010E944B0BF8012B
:10176000458D568D70E060E02AE0CE010E949D0913
:101770006DEE72E0CE010E944B0BF80141A152A127
:1017800063A174A122E0CE010E94650A6DEF72E0B0
:10179000CE010E944B0BF80145A156A167A170A58F
:1017A00022E0CE010E94650A68E073E0CE010E944B
:1017B0004B0BF801418952896389748922E0CE017B
:1017C0000E94650A6FE073E0CE010E944B0BF801A6
:1017D000458956896789708D22E0CE010E94650A8D
:1017E0006FED72E0CE010E944B0BFF2051F061EED5
:1017F00072E0CE01DF91CF911F910F91FF900C9479
:101800008E09DF91CF911F910F91FF900895FF9264
:101810000F931F93CF93DF938C01EB01F42E40E0E5
:101820000E944D0B66E173E0CE010E944B0BF80164
:10183000648970E0CE010E94E90965E273E0CE019F
:101840000E944B0BF8014589568970E060E02AE060
:10185000CE010E949D0964E373E0CE010E944B0B10
:10186000F801678D70A1CE010E94E9096FED72E069
:10187000CE010E944B0BFF2051F061EE72E0CE01D1
:10188000DF91CF911F910F91FF900C948E09DF9102
:10189000CF911F910F91FF900895CF93DF93FC019B
:1018A000608D718D161617069CF4EC01072E000C46
:1018B000880B990B0E9420279B01AC016AA17BA198
:1018C0008CA19DA10E947626DF91CF910C94972840
:1018D00060E070E080E89FEBDF91CF910895CF92B8
:1018E000DF92EF92FF92CF93DF93EC018881998191
:1018F0000E944D0C6B017C018A819B810E944D0CE2
:101900009B01AC01C701B6010E941C28DF91CF9159
:10191000FF90EF90DF90CF900895CF92DF92EF92FB
:10192000FF92CF93DF93EC010E946F0C6B017C015F
:101930002AE037ED43E25CE30E9417281816ECF426
:10194000E881F981608D718D072E000C880B990B51
:101950000E9420279B01AC016C817D818E819F813B
:101960000E947626A70196010E947626DF91CF91EC
:10197000FF90EF90DF90CF90089560E070E080E8F6
:101980009FE3F4CFCF92DF92EF92FF92CF93DF935A
:10199000EC010E946F0C6B017C01CE010E948D0C4A
:1019A0000E94F3250E9489289B01AC01C701B60162
:1019B0000E941C28DF91CF91FF90EF90DF90CF9095
:1019C0000895AF92BF92CF92DF92EF92FF920F9362
:1019D0001F93CF93DF9300D01F92CDB7DEB78C015A
:1019E0006B017A018091A1038333E9F45B01680103
:1019F000C40ED51EC016D106A9F10E948D068FE037
:101A00000E949806812F0E949806802F0E949806B7
:101A10000F5F1F4F80E00E949806F50181935F01E0
:101A20000E948306E7CF843369F50E948D061983EF
:101A30000A838F2D8F778B83EC8264E070E0CE0178
:101A400001960E946906A70170E060E0C6010E944D
:101A50006E2AE114F10421F0B701C6010E94690663
:101A60000E948306C7010F900F900F900F90DF9197
:101A7000CF911F910F91FF90EF90DF90CF90BF908B
:101A8000AF9008950E948D060F3F110509F030F4C4
:101A900019820A831B8263E070E0D1CF17FD0BC06F
:101AA00019820A8333E0169507953A95E1F7007E8F
:101AB00008600B83F0CFC80126E0969587952A959C
:101AC000E1F7807E19830A830115104C18F48061B8
:101AD0008B83E1CF8861FCCFCF93DF931F92CDB78B
:101AE000DEB72091A20330E0322F2227260F371FC6
:101AF00090E0982F882741E050E0BE016F5F7F4F54
:101B0000820F931F0E94E10C89810F90DF91CF918A
:101B10000895CF93C82F462F61E070E00E94AB0775
:101B200061E070E08C2F0E946C0D8111F9CFCF9194
:101B30000895CF93C82F80E591E00E94EE0168E000
:101B400070E08C2FCF910C94890DCF93C82F80E536
:101B500091E00E94EE0160E170E08C2FCF910C9437
:101B6000890DCF93DF93EC01888D883020F40E949B
:101B7000A50D88E0888FDF91CF91089563E070E034
:101B80000C946C0DCF93C82F80E591E00E94EE017C
:101B90008C2FCF910C94BE0DCF93DF93EC018C85ED
:101BA0008830D0F40E94C20D843189F0882379F006
:101BB000883169F021E08C3159F4E881F9810084A1
:101BC000F185E02DCE01199521E0892B09F420E063
:101BD000822FDF91CF91089580E0FBCFCF92DF92EB
:101BE000EF92FF92CF93DF93EC018C85883068F4FD
:101BF0000E94990D0E9476036B017C018C850E94E6
:101C0000C20D811109C088E08C87DF91CF91FF90D0
:101C1000EF90DF90CF90089561E070E080E090E079
:101C20000E9444030E947603AB01BC014C195D097C
:101C30006E097F098D859E85B0E0A0E048175907A1
:101C40006A077B07D8F28C850E94A50DDCCFEF9246
:101C5000FF920F931F93CF93DF937C018091A10399
:101C6000D4E0833309F0D8E00DE813E0C0E0F801D8
:101C7000219131918F01F7018481958128173907CE
:101C800029F0CF5FDC13F3CF80E006C08C2F0E94D9
:101C9000C20D8431B1F781E0DF91CF911F910F9197
:101CA000FF90EF900895CF93FC01C08D80E591E007
:101CB0000E94EE0160E270E08C2F0E94890D62E0CC
:101CC00070E08C2F0E946C0D84FD16C062E070E005
:101CD0008C2F0E946C0D83FF0AC048E162E070E027
:101CE0008C2F0E94AB0780E090E0CF91089580E5B3
:101CF00091E00E94EE01E3CF40E162E070E08C2FC2
:101D00000E94AB0781E0F0CFCF93DF931F92CDB756
:101D1000DEB741E050E0BE016F5F7F4F90E080E0B2
:101D20000E94E10C89810F90DF91CF910895CF93AC
:101D3000DF93C4E1D0E00E94840E882361F061E06B
:101D400070E080E090E00E9444032197A1F780E0DA
:101D5000DF91CF91089581E0FBCFCF92DF92EF9298
:101D6000FF921F93CF93DF93CDB7DEB76A970FB67D
:101D7000F894DEBF0FBECDBFFA012CE932E03A8302
:101D800029835FEF5B835C835D831E8238872F83AB
:101D9000C280D380E480F580C986DA86EB86FC8633
:101DA000FB0142815381648175814F87588B698B18
:101DB0007A8B3C8B2B8BFC0182819381A481B58132
:101DC0008D8B9E8BAF8BB88F8091A30381119BC0AD
:101DD00060E372E080E090E00E9444031FB7F89453
:101DE0008091A003811127C0E1E6F3E08491EBE14B
:101DF000F3E09491E82FF0E0EE0FFF1FE453FD4F66
:101E0000A591B491EC91E92321F461E085E30E946E
:101E1000980261E085E30E94C6028CB580618CBDAA
:101E20008CB580648CBD61E084E30E94C60261E0F1
:101E300083E30E94C6028091A0038F5F8093A0037A
:101E40001FBFE6E3F3E0E491F0E0EE0FFF1FEE5476
:101E5000FD4F8591949190939F0380939E03E0EFB3
:101E6000F2E0E491E0939D0361E08AE00E94C60203
:101E70000E94830680E591E00E94EE0184E3809356
:101E8000A10380E80E944D070E94970E882309F461
:101E90006EC088E00E944D070E94840E883009F0D1
:101EA00066C080E10E944D070E94840E803109F0D7
:101EB0005EC080E00E944D070E94840E182F8111A1
:101EC00056C041E050E0BE01675E7F4F8FE190E079
:101ED0000E94E10C898D833009F049C080E4809331
:101EE000A20342E06EE170E0812F0E94AB0742E066
:101EF0006FE170E0812F0E94AB071F5F183089F7F8
:101F000081E08093A30380E591E00E94EE0146E02A
:101F100050E064E072E089E090E00E949F0644E0B7
:101F200050E0BE016B5E7F4F8FE090E00E949F0605
:101F300044E050E0BE01675F7F4F81E090E00E9487
:101F40009F0644E050E0BE016D5F7F4F85E090E06A
:101F50000E949F068F859889A989BA898093EB038F
:101F60009093EC03A093ED03B093EE0369C087E375
:101F70008093A10380E80E944D070E94970E88235A
:101F800029F188E00E944D070E94840E8830F1F408
:101F900080E10E944D070E94840E182F8031B1F419
:101FA00080E00E944D070E94840E81110FC041E025
:101FB00050E0BE01675E7F4F89E390E00E94E10C34
:101FC000898D843019F41093A2039ACF83E3809310
:101FD000A10380E80E944D070E94970E882371F1AB
:101FE00080E10E944D070E94840E803139F582E124
:101FF0000E944D070E94840E823101F580E00E940C
:102000004D070E94840E811119C084E08093A203C1
:1020100015E51A8F41E050E0BE01665E7F4F8BE10F
:1020200090E00E949F06198F41E050E0BE01675E7C
:102030007F4F8AE190E00E949F0662CF1092A10339
:102040006A960FB6F894DEBF0FBECDBFDF91CF9179
:102050001F91FF90EF90DF90CF9008951F93CF9343
:10206000DF931F92CDB7DEB7182F80E591E00E9475
:10207000EE01812F0E94600727E0129FF0011124DA
:10208000EB5AFC4F22813381377041E050E0BE01B2
:102090006F5F7F4F820F931F0E94E10C89810F9029
:1020A000DF91CF911F910895CF93DF93FC01248599
:1020B000283028F08FEF9FEFDF91CF910895EC014A
:1020C0000190F081E02D0084F185E02D1995892B98
:1020D00089F38C850E942E1090E0EECFFC01808D5C
:1020E000883040F4218D328D232B21F00E942E1058
:1020F00090E008958FEF9FEF0895DA01E091A20339
:10210000F0E0FE2FEE27E60FF71F90E0982F8827CC
:10211000A901BD018E0F9F1F0C94E10C8F929F921D
:10212000AF92BF92CF92DF92EF92FF920F931F93E5
:10213000CF93DF93CDB7DEB760970FB6F894DEBFCD
:102140000FBECDBF7C019091A103911115C018E085
:10215000812F60960FB6F894DEBF0FBECDBFDF9122
:10216000CF911F910F91FF90EF90DF90CF90BF9094
:10217000AF909F908F90089508E0933309F404E0A6
:102180006B0180E591E00E94EE019E012F5F3F4FC1
:102190005901490110E0812F0E94BE0DF401819385
:1021A0004F018823C1F01F5F0113F5CF00E0F50157
:1021B00081915F018D3149F0883139F08A51823047
:1021C00020F00F5F1013F3CFC2CF60E170E0802FDB
:1021D0000E94890D102FA12EB12CF501EE0FFF1FCB
:1021E000E357FC4F1182108283EE93E00197F1F7E1
:1021F00042E870E060E0812F0E94AB074FEF62E0A1
:1022000070E0812F0E94AB07B601C114D10491F494
:10221000809102029091030201968115F0EC9F07D4
:1022200008F45CC090930302809302026091020262
:1022300070910302812F0E94950786E0E2E1F2E0AF
:10224000DE01199601900D928A95E1F7F7018381DD
:102250008F778C8784818D8785818E87A7014E5FDC
:102260005F4F24E030E06CE070E0812F0E946E0749
:10227000B601812F0E947F0726E030E0AE01475F64
:102280005F4F66E070E0812F0E946E0761E070E0B2
:10229000812F0E94890D27E02A9DC0012B9D900D62
:1022A00011249C012B5A3C4F7901F90111821082B3
:1022B00022E030E0AE01415F5F4F68E270E0812FC5
:1022C0000E947D108F859889982789279827F70184
:1022D000938382831682158214823ACF80E090EC39
:1022E000A1CFCF92DF92EF92FF920F931F93CF93E4
:1022F000DF9300D000D0CDB7DEB78C016B017A013F
:10230000FC01808D883010F40E94A50D8CE992E0CC
:102310009A838983F60182819381A481B5818B831D
:102320009C83AD83BE83B701CE0101960E948E10BF
:10233000F801808F8830A0F4F586E486128E118E25
:1023400081E026960FB6F894DEBF0FBECDBFDF91B9
:10235000CF911F910F91FF90EF90DF90CF90089554
:1023600080E0EFCF0F931F93CF93DF931F921F92C5
:10237000CDB7DEB7FC0124852830E0F48C0180E580
:1023800091E00E94EE0122E030E0AE014F5F5F4F2E
:1023900060E170E0F80184850E947D1089819A8156
:1023A0009827892798270F900F90DF91CF911F9141
:1023B0000F91089590E080E0F6CFEF92FF920F9397
:1023C0001F93CF93DF9300D01F92CDB7DEB78C0160
:1023D0007B01FB0184858830A8F08CE992E0F8014C
:1023E000918380831282138214821582C8010F9018
:1023F0000F900F900F90DF91CF911F910F91FF9051
:10240000EF90089580E591E00E94EE0124E030E035
:10241000AE014F5F5F4F6CE070E0F70184850E9472
:102420007D108CE992E0F8019183808389819A8103
:10243000AB81BC8182839383A483B583D7CF0F9371
:102440001F93CF93DF931F921F92CDB7DEB7FC018E
:1024500024852830E0F48C0180E591E00E94EE01B3
:1024600022E030E0AE014F5F5F4F64E070E0F801C2
:1024700084850E947D1089819A81982789279827D1
:102480000F900F90DF91CF911F910F91089590E0E1
:1024900080E0F6CF7F928F929F92AF92BF92CF92C1
:1024A000DF92EF92FF920F931F93CF93DF931F92D0
:1024B0001F92CDB7DEB7782E8B014A01590122E079
:1024C00030E0AE014F5F5F4F64E270E00E947D102C
:1024D000E980FA80FE24EF24FE24E00EF11E97012D
:1024E00037704091A103072D10E0433309F042C03B
:1024F000085F1F4F102F0027110F110F110FC90177
:10250000800F911F4733C9F1A9014A0D5B1D41306E
:10251000584098F160E078E06B01C21AD30AA60136
:10252000B4010E949F06A5014C195D09B4016C0D10
:102530007D1DC8010E949F06EA0CFB1CF982EA82FD
:1025400022E030E0AE014F5F5F4F64E270E0872D24
:102550000E946E070F900F90DF91CF911F910F9106
:10256000FF90EF90DF90CF90BF90AF909F908F90B3
:102570007F900895005F1F4FBDCFA501B401DACF52
:10258000EF92FF921F93CF93DF931F921F92CDB7CD
:10259000DEB7182F22E030E0AE014F5F5F4F60E200
:1025A00070E00E947D10E980FA80FE24EF24FE2472
:1025B00022E030E0AE014F5F5F4F60E270E0812FBC
:1025C0000E947D1089819A81982789279827E8168B
:1025D000F90689F487E0189FF0011124EB5AFC4FAB
:1025E000F582E482C7010F900F90DF91CF911F9188
:1025F000FF90EF9008957C01DBCF1F93CF93DF9383
:10260000182F80E591E00E94EE01812F0E94C012F8
:10261000EC01812F0E94BE0D873121F08C3111F029
:10262000D0E0C0E0CE01DF91CF911F910895CF930C
:10263000DF93EC018C85883060F40E94C20D8731F5
:1026400011F08C3131F48C850E94FD128115984077
:1026500088F3DF91CF910895FC018485883010F4D0
:102660000C94FD1290E080E00895CF92DF92EF92FB
:10267000FF921F93CF93DF93182F7B01EA01413024
:10268000584010F0C0E0D8E080E591E00E94EE01F3
:10269000812F0E94C0126C01812F0E94BE0D8731D4
:1026A00011F08C3121F5CC16DD0670F380E591E058
:1026B0000E94EE019E01A70170E060E0812F0E9460
:1026C0004A1260E270E0812F0E94890D62E070E0A2
:1026D000812F0E946C0D84FD0DC0812F0E94BE0DC4
:1026E0008823B9F080E591E00E94EE01EFCFD0E0C1
:1026F000C0E0DCCF40E162E070E0812F0E94AB07D8
:10270000CE01DF91CF911F91FF90EF90DF90CF909E
:102710000895D0E0C0E0F4CF0F931F93CF93DF93E1
:102720008C01EA01FC018485883048F40E9435134D
:10273000892B39F481E090E0F80193838283D0E023
:10274000C0E0CE01DF91CF911F910F9108959F922C
:10275000AF92BF92CF92DF92EF92FF920F931F93AF
:10276000CF93DF938C015B01942EE52EFC01C6888C
:10277000D788F08C80E591E00E94EE018F2D0E94B9
:10278000C012C92DDE2D8C179D0708F4EC019E01A7
:10279000A501B6018F2D0E944A12F80186899789FA
:1027A0008C0F9D1F978B868BCE01DF91CF911F9150
:1027B0000F91FF90EF90DF90CF90BF90AF909F90E0
:1027C0000895FF920F931F93CF93DF931F921F9251
:1027D000CDB7DEB7F82E22E030E0AE014F5F5F4F9D
:1027E00066E270E00E947D1009811A81102701279E
:1027F000102722E030E0AE014F5F5F4F66E270E0ED
:102800008F2D0E947D1089819A819827892798278A
:102810000817190749F4C8010F900F90DF91CF9165
:102820001F910F91FF9008958C01E3CF1F93CF93D9
:10283000DF93182F87E0189FE0011124CB5ADC4F5B
:1028400088819981009761F480E591E00E94EE0112
:10285000812F0E94E1132E81821B91099983888325
:10286000DF91CF911F910895FC018485883010F489
:102870000C94161490E080E008959F92AF92BF925E
:10288000CF92DF92EF92FF920F931F93CF93DF933C
:10289000EC017B018091A103811121C01B821A826E
:1028A00088EE93E0A0E0B0E08C839D83AE83BF838D
:1028B00086E492E09983888388E08C8788EE93E0B1
:1028C0009E878D87CE01DF91CF911F910F91FF9051
:1028D000EF90DF90CF90BF90AF909F90089534E03D
:1028E000932E833311F028E0922E8DE8C82E83E0DA
:1028F000D82E10E098E0B92EA12CD6012D913D9153
:102900006D01F701848195812817390791F4812F92
:102910000E94C20D082F873111F08C3139F5812FBB
:102920000E941614892B59F50C3119F4812F0E943D
:10293000990D1F5F9112E1CFA11008C0D701ED9151
:10294000FC910084F185E02DC70119951B821A8244
:1029500088EE93E0A0E0B0E08C839D83AE83BF83DC
:1029600086E492E099838883BC86A8CF843149F0BD
:102970008111DFCFF601329711821082DACFB12EAA
:10298000D8CFAA24A394D5CF8F929F92AF92BF9213
:10299000CF92DF92EF92FF920F931F93CF93DF932B
:1029A000CDB7DEB72F970FB6F894DEBF0FBECDBF01
:1029B0005C014B017A018091A1038823C9F104E0F5
:1029C000833309F008E0B501CE0101960E943D1461
:1029D0008DE8C82E83E0D82E10E0F60121913191C8
:1029E0006F01F501848195812817390751F4812FF2
:1029F0000E94C20D873129F4A701B401812F0E94E2
:102A000035131F5F0113E9CFC7012F960FB6F89456
:102A1000DEBF0FBECDBFDF91CF911F910F91FF9011
:102A2000EF90DF90CF90BF90AF909F908F900895E0
:102A3000F12CE12CE9CF4F925F927F928F929F927F
:102A4000AF92BF92CF92DF92EF92FF920F931F93BC
:102A5000CF93DF931F921F92CDB7DEB7782E6B0115
:102A60004A01A82EB12C27E0829FC0011124FC014D
:102A7000EB5AFC4F7F010081118180E591E00E94BB
:102A8000EE010815190554F4872D0E94E113F70192
:102A900026818C01021B1109118300830115110588
:102AA00019F5872D0E94BE0D843159F0882349F015
:102AB00001E010E08C3111F410E000E01195019577
:102AC0001109C8010F900F90DF91CF911F910F91C5
:102AD000FF90EF90DF90CF90BF90AF909F908F903E
:102AE0007F905F904F900895801691060CF48401BA
:102AF00087E08A9DF0018B9DF00D1124EB5AFC4F6D
:102B0000E280F380C114D10451F12701F7E05F2284
:102B1000872D0E946007840D951D2091A103273306
:102B200009F453C09801240D351D2130384008F4B4
:102B30004CC020E038E0490184189508A401B60192
:102B40000E94E10C2601480C591C6801C818D908DC
:102B5000872D0E946007A601B2010E94E10CE00EE1
:102B6000F11E87E08A9DF0018B9DF00D1124EB5A38
:102B7000FC4FF382E28220813181201B310B3183B3
:102B800020838681800F912F911D8A3F910510F43B
:102B9000232BF1F487E08A9DF0018B9DF00D112429
:102BA000EB5AFC4F1682F982EA8222E030E0AE0155
:102BB0004F5F5F4F68E270E0872D0E946E0760E410
:102BC00070E0872D0E94890D7CCFA801B601C5CF8A
:102BD000868377CFCF93DF931F92CDB7DEB741E0E7
:102BE00050E0BE016F5F7F4FFC0184850E941B1582
:102BF0001816190634F4898190E00F90DF91CF9177
:102C000008958FEF9FEFF9CFFC018485883010F491
:102C10000C941B1590E080E00895CF93DF93FC01A6
:102C2000218D328D2115310529F48FEF9FEFDF9132
:102C3000CF910895EC01808D4217530708F0A90148
:102C40000E941B151816190684F7298D3A8D281B2A
:102C5000390B3A8F298FEBCF0F931F93CF93DF93CD
:102C60001F92CDB7DEB7FC01218D328D232B41F4AD
:102C70008FEF9FEF0F90DF91CF911F910F910895EC
:102C80008C0141E050E0BE016F5F7F4FFC01808D01
:102C90000E941B15181619065CF7F801818D928D9C
:102CA0000197928F818F898190E0E4CF0F931F93DA
:102CB000CF93DF9300D000D01F921F92CDB7DEB725
:102CC0008C01D80159964D915C915A974115510547
:102CD00051F0ED91FC91048CF58DE02D70E060E0F9
:102CE000C8011995EECFF801808D0E941614892B2A
:102CF000B1F148E050E0BE016F5F7F4FD8015896B8
:102D00008C910E941B1518161906F4F4D8015096E0
:102D100084E0FE01319601900D928A95E1F78D8154
:102D200090E0982F88272E81820F911DF801958BB6
:102D3000848B8F81282F30E0322F22278885820FC5
:102D4000932F911D928F818F28960FB6F894DEBF36
:102D50000FBECDBFDF91CF911F910F91089590E0ED
:102D600080E0F2CF8F929F92AF92BF92CF92DF928C
:102D7000EF92FF920F931F93CF93DF9300D000D079
:102D800000D01F92CDB7DEB79091A103911115C06D
:102D900018E0812F2A960FB6F894DEBF0FBECDBF84
:102DA000DF91CF911F910F91FF90EF90DF90CF9027
:102DB000BF90AF909F908F90089528E0F22E9333AC
:102DC00011F494E0F92E6B01082F80E591E00E9448
:102DD000EE019E012F5F3F4F5901490110E0812F05
:102DE0000E94BE0DF40181934F018823C1F01F5F43
:102DF000F112F5CFF12CF50191915F019D3149F070
:102E0000983139F09A51923020F0F3941F11F3CF9A
:102E1000BFCF60E170E08F2D0E94890D1F2DE12E44
:102E2000F12CF701EE0FFF1FE357FC4F11821082C8
:102E300083EE93E00197F1F7402F70E060E0812F7F
:102E40000E94AB074FEF62E070E0812F0E94AB075A
:102E5000B601CD2889F48091020290910302019677
:102E60008115F0EC9F0798F1909303028093020282
:102E70006091020270910302812F0E94950761E028
:102E800070E0812F0E94890D27E02E9DC0012F9DAB
:102E9000900D11249C012B5A3C4F7901F9011182AC
:102EA000108222E030E0AE01475F5F4F68E270E0E1
:102EB000812F0E947D1089859A85982789279827D8
:102EC000F7019383828316821582148262CF80E099
:102ED00090ECCACFCF92DF92EF92FF921F93CF93E5
:102EE000DF93EC017B016A018C85883048F40E94F5
:102EF000C20D882319F08C850E94990D88E08C877B
:102F0000F70182819381A481B5810097A105B10564
:102F100051F490E080E0DF91CF911F91FF90EF900E
:102F2000DF90CF9008958F3F9F4FAF4FBF4F89F3F2
:102F300070E060E081E20E94B216182F8C87883022
:102F400040F780E591E00E94EE01A7014E5F5F4FE0
:102F500024E030E06CE070E0812F0E946E07B60143
:102F6000812F0E947F0764E070E0812F0E94890D0D
:102F70000E9476036B017C018C850E94C20D873113
:102F800011F18C3101F1882321F20E947603AB010B
:102F9000BC014C195D096E097F098D859E85B0E0E5
:102FA000A0E084179507A607B70738F061E070E046
:102FB00080E090E00E944403DFCF8C850E94A50D45
:102FC00088E08C87A6CF81E090E0A5CF0F931F9378
:102FD000CF938C01FC016481758181E20E94B2165D
:102FE000C82F8830F8F480E591E00E94EE018C2F24
:102FF0000E94BE0D833131F08C2FCF911F910F9124
:103000000C94990D62E070E08C2F0E94890DF801FC
:1030100084819581EC2FF0E0EE0FFF1FE357FC4F0A
:1030200091838083CF911F910F9108950F931F93E8
:10303000CF93DF93EC018B01888D883010F40E94D0
:10304000A50DB80182E00E94B216888F883050F436
:103050001D870C871A8E198E81E0DF91CF911F9109
:103060000F91089580E0F9CF4F925F926F927F9217
:103070008F929F92AF92BF92CF92DF92EF92FF9288
:103080000F931F93CF93DF93CDB7DEB763970FB640
:10309000F894DEBF0FBECDBF7C016B013A01FB018E
:1030A00020E090E080E06AE03191332309F461C0D0
:1030B00040ED430F4A3008F04DC0689FA001699F62
:1030C000500D1124CA01C097830F911D37FD9A95A9
:1030D0008F3F910549F340F3F701428153816481A9
:1030E00075818091CD039091CE03A091CF03B091D3
:1030F000D003481759076A077B0709F40DC28701F7
:10310000085F1F4F0E9476036F7077277C5FC801AE
:103110000E941618813009F004C28CE992E09A836B
:103120008983F70182819381A481B5818B839C83FC
:10313000AD83BE8345E350E0BE016F5F7F4FC801A2
:103140000E94DF07892BA9F5D12CC12CC8010E9450
:10315000B10D17C03E3209F0BFCF233009F4BCCF08
:10316000D301A20FB11D12968C932F5F90E080E0E7
:103170009BCF233009F0B0CFF3018583CC24C394D7
:10318000D12CC60163960FB6F894DEBF0FBECDBF3B
:10319000DF91CF911F910F91FF90EF90DF90CF9033
:1031A000BF90AF909F908F907F906F905F904F9067
:1031B00008950E947603F7017783668342E050E02A
:1031C000B7016A5F7F4FC8010E94A71381E090E0BA
:1031D0009A83898342E050E0BE016F5F7F4FC80150
:1031E0000E94A71380E091E09A83898342E050E037
:1031F000BE016F5F7F4FC8010E94A7131A82198218
:1032000042E050E0BE016F5F7F4FC8010E94A713EC
:1032100042E050E0BE016F5F7F4FC8010E94A713DC
:1032200042E050E0BE016F5F7F4FC8010E94A713CC
:103230005601F6018081882301F16501F601819133
:103240002F01882311F08E32B1F446018A189B08B1
:103250001814190474F48D8641E050E0BE01635FD8
:103260007F4FC8010E94A713A401B501C8010E94A5
:10327000A7135201DECF6201E1CF1D8641E050E08D
:10328000BE01635F7F4FC8010E94A713C12CDD24DC
:10329000D394DA82C98242E050E0BE016F5F7F4F73
:1032A000C8010E94A713DA82C98242E050E0BE0141
:1032B0006F5F7F4FC8010E94A713C8010E94530E81
:1032C000892B09F441CFF3E0AF2EB12C230122E08A
:1032D000420E511CD4C0F701428153816481758133
:1032E000808D918DA28DB38D481759076A077B0792
:1032F00009F008C1848D958DC59709F003C181A19E
:1033000092A15DEFC52EDD24DA940C970CF4ADC0CC
:103310004CE050E0BE016F5F7F4FC8010E940D1668
:103320008B819C819827892798279A8B898BF70115
:103330004681578129813A814217530709F0E7C036
:1033400097FFE5C08F7092703BEFC32EDD24DA94B7
:10335000892B09F08AC06F807884762467247624CC
:103360002AEFC22EDD24DA946114710409F47DC0C1
:10337000D12CC12C8D819E81982789279827C8162A
:10338000D906F8F441E050E0BE01635F7F4FC80109
:103390000E940D164D85442331F050E070E060E04E
:1033A000C8010E940D168D858111ECCF44E050E0DC
:1033B00070E060E0C8010E940D16FFEFCF1ADF0A2F
:1033C000D9CF912C812C41E050E0BE016D5E7F4F42
:1033D000C8010E940D164B89842F807C09F06CC0B7
:1033E000442331F050E070E060E0C8010E940D1607
:1033F0008B898111E8CF42E050E0BE01615F7F4FD1
:10340000C8010E940D1642E050E0BE01635F7F4F8D
:10341000C8010E940D1644E050E070E060E0C80171
:103420000E940D1642E050E0BE016F5E7F4FC80162
:103430000E940D168F85988949895A898115914076
:1034400009F043C0CD84DE84DC24CD24DC2481E07B
:10345000C816D104D1F54115544009F04AC044E0E2
:1034600050E0B201C8010E940D1621E0A21AB10875
:1034700009F46CCEFFEFCF16DF0609F067CE0E948D
:1034800076033B014C01C8010E9456161816190616
:103490000CF421CF0E9476036619770988099909EF
:1034A000693873418105910548F562E370E080E079
:1034B00090E00E944403E7CF41E050E070E060E01C
:1034C000C8010E940D161B8A93CF54274527542705
:1034D00070E060E0C8010E940D16FFEF8F1A9F0A8E
:1034E0006814790409F06FCF96EFC92EDD24DA94C1
:1034F000BCCFE7EFCE2EDD24DA94B7CFCC24CA942C
:10350000DC2CB3CF6EEFC62EDD24DA94AECF4CEFB9
:10351000C42EDD24DA94A9CF8EEFC82EDD24DA94F0
:1035200030CED12CC12C2DCECF92DF92EF92FF92D4
:103530000F931F93CF93DF93CDB7DEB7AF970FB63F
:10354000F894DEBF0FBECDBF8C016B017A018CE910
:1035500092E09A8389831B821C821D821E821C86B4
:103560001B8648EE53E060E070E04D875E876F8712
:10357000788B2CE132E03A872987988F8F8B198ED0
:103580001A8E1B8E1C8E28E029A39BA78AA71CA637
:103590001DA61EA61FA6D8011C968C91883060F42B
:1035A0000E94C20D882321F0F80184850E94990DA4
:1035B00088E0D8011C968C938091EB039091EC03EA
:1035C000A091ED03B091EE038EA39FA3A8A7B9A786
:1035D0008B839C83AD83BE8318861F82AE01465DBC
:1035E0005F4FB601CE0101960E9434180097C1F0DA
:1035F000D801ED91FC910684F785E02D8CE992E0ED
:103600009DA38CA38CA59DA5AEA5BFA58EA39FA3AE
:10361000A8A7B9A7A701BE016C5D7F4FC801199586
:10362000AF960FB6F894DEBF0FBECDBFDF91CF913E
:103630001F910F91FF90EF90DF90CF900895CF9260
:10364000DF92EF92FF920F931F93CF93DF93CDB74B
:10365000DEB7AF970FB6F894DEBF0FBECDBF7C01CB
:103660006A010CE912E01A8309831C861B8688EE26
:1036700093E0A0E0B0E08D879E87AF87B88B8CE1A8
:1036800092E09A878987188F0F8B198E1A8E1B8E5E
:103690001C8E88E089A31BA70AA71CA61DA61EA630
:1036A0001FA68091EB039091EC03A091ED03B091E4
:1036B000EE038EA39FA3A8A7B9A78B839C83AD839A
:1036C000BE8318861F82AE01465D5F4FCE01019614
:1036D0000E94341881309105B1F4D701ED91FC912D
:1036E0000488F589E02D1DA30CA38CA59DA5AEA58E
:1036F000BFA58EA39FA3A8A7B9A7A601BE016C5D15
:103700007F4FC7011995AF960FB6F894DEBF0FBE75
:10371000CDBFDF91CF911F910F91FF90EF90DF9080
:10372000CF9008951F920F920FB60F9211242F93EE
:103730003F938F939F93AF93BF9380914D0390914D
:103740004E03A0914F03B091500330914C0323E0FE
:10375000230F2D3758F50196A11DB11D20934C0361
:1037600080934D0390934E03A0934F03B093500367
:103770008091510390915203A0915303B09154034F
:103780000196A11DB11D8093510390935203A09304
:103790005303B0935403BF91AF919F918F913F9189
:1037A0002F910F900FBE0F901F90189526E8230FB2
:1037B0000296A11DB11DD2CF4F925F926F927F9260
:1037C0008F929F92AF92BF92CF92DF92EF92FF9231
:1037D0000F931F93CF93DF938CE992E09093BA03FA
:1037E0008093B9031092BB031092BC031092BD03E7
:1037F0001092BE031092B6031092B50324E732E094
:103800003093B4032093B30326EF31E03093B80331
:103810002093B7031092A7031092A60348EE53E03B
:1038200060E070E04093A8035093A9036093AA035B
:103830007093AB0326E432E03093A5032093A403F6
:1038400028E02093B00328EE33E03093B2032093B6
:10385000B1039093C0038093BF031092C1031092F1
:10386000C2031092C3031092C4039093C6038093C3
:10387000C5031092C7031092C8031092C903109297
:10388000CA039093CC038093CB031092CD03109284
:10389000CE031092CF031092D0039093D203809363
:1038A000D1031092D3031092D4031092D503109237
:1038B000D6039093D8038093D7031092D903109224
:1038C000DA031092DB031092DC039093DE03809303
:1038D000DD031092DF031092E0031092E1031092D7
:1038E000E2039093E4038093E3031092E5031092C4
:1038F000E6031092E7031092E8039093F00380939D
:10390000EF031092F1031092F2031092F30310925E
:10391000F4039093EA038093E9031092EB0310926F
:10392000EC031092ED031092EE0390938C088093B9
:103930008B0810928D0810928E0810928F081092AA
:1039400090089093740680937306109275061092F7
:10395000760610927706109278069093560580931B
:10396000550530EC3093570528EA20935805C1E0FF
:10397000C093590545E540935A05909350058093AF
:103980004F053093510520935205C09353052EEFF8
:103990002093540590934A05809349058FEF8093B7
:1039A0004B0580934C0580934D0510924E058CE895
:1039B00092E090931C0580931B05109220051092B5
:1039C0001F051092230510922405109225051092D0
:1039D000260588EC90E0A0E0B0E080932705909366
:1039E0002805A0932905B0932A05C0932B0581E0F3
:1039F00090E0909322058093210585E090E09093DC
:103A00001E0580931D0560E00E94C60284E992E0D5
:103A100090931C0580931B05109239051092380570
:103A200010923B0510923A0510923C0510923D050C
:103A300010923E0510923F051092400510924105EC
:103A400010924205109243051092450510924405CC
:103A50001092470510924605C093480510922C0518
:103A600010922D0510922E0510922F0580E090ECFB
:103A7000AFE7B4E48093300590933105A09332050D
:103A8000B09333058093340590933505A0933605A4
:103A9000B093370585E08093140584E190E00E949F
:103AA0004429909318058093170585E090E00E94C3
:103AB000442990931A0580931905109215051092C8
:103AC00016051092130580E090911405891748F4AB
:103AD000E0911905F0911A05E80FF11D80838F5FC1
:103AE000F3CF8CE892E09093F3048093F204109269
:103AF000F7041092F6041092FA041092FB0410924C
:103B0000FC041092FD0488EC90E0A0E0B0E080930B
:103B1000FE049093FF04A0930005B093010581E09B
:103B2000809302051092F9041092F80484E090E06A
:103B30009093F5048093F40460E00E94C60284E848
:103B400092E09093F3048093F20410920305109294
:103B50000405109205051092060584E690E0909306
:103B60000805809307051092090510920A05109226
:103B70000B0510920C0510920E0510920D05109277
:103B8000100510920F05C2E0D0E0D0931205C0934B
:103B900011051092ED041092EE041092EF041092B1
:103BA000F0041092F1048EE698E09093EC04809378
:103BB000EB0488E893E1A0E0B0E08093E704909301
:103BC000E804A093E904B093EA040E9476036093AA
:103BD000ED047093EE048093EF049093F004D0937F
:103BE0000B02C0930A020DEA14E081E090E090938A
:103BF000AE048093AD0460E00E94C60280E090E0D5
:103C0000A8E8B2E48093C1049093C204A093C304D3
:103C1000B093C404412C512C80E2682E80E4782EAD
:103C20004092D7045092D8046092D9047092DA047A
:103C30001092B3041092B4041092B5041092B6041A
:103C40001092AF041092B0041092B1041092B2041A
:103C50001092C6041092C5041092C7041092C804B2
:103C60001092C9041092CA041092CF041092D0048A
:103C70001092D1041092D20493E6892E91E3992EEA
:103C800090EAA92E9BE3B92E8092DB049092DC048B
:103C9000A092DD04B092DE04C12CD12C20E8E22EEB
:103CA0002FE3F22EC092DF04D092E004E092E10410
:103CB000F092E2041092E3041092E4041092E504FE
:103CC0001092E604D0937404C093730460E082E021
:103CD0000E94C60282E396E4A2E6B2E480938704DF
:103CE00090938804A0938904B0938A0440929D0421
:103CF00050929E0460929F047092A00410927904E6
:103D000010927A0410927B0410927C041092750435
:103D100010927604109277041092780410928C041A
:103D200010928B0410928D0410928E0410928F04C6
:103D30001092900410929504109296041092970499
:103D4000109298048092A1049092A204A092A304DD
:103D5000B092A404C092A504D092A604E092A70455
:103D6000F092A8041092A9041092AA041092AB0435
:103D70001092AC0483E090E090933A04809339046D
:103D800060E00E94C60282E396E4A2E6B2E4809379
:103D90004D0490934E04A0934F04B093500440926E
:103DA00063045092640460926504709266041092F9
:103DB0003F04109240041092410410924204109269
:103DC0003B0410923C0410923D0410923E04109269
:103DD0005204109251041092530410925404109201
:103DE00055041092560410925B0410925C041092D9
:103DF0005D0410925E048092670490926804A09221
:103E00006904B0926A04C0926B04D0926C04E09290
:103E10006D04F0926E0410926F0410927004109270
:103E2000710410927204109318040093170483E72E
:103E300094E090931A048093190433E3C32EDC2C8E
:103E400033E4E32E32E4F32EC0922D04D0922E04FC
:103E5000E0922F04F092300440E050E060E070E423
:103E600040933104509332046093330470933404CC
:103E70008DE39AE0A5E0B1E4809335049093360495
:103E8000A0933704B09338041092240410922304B2
:103E90001092290410922A0410922B0410922C04E0
:103EA00010922504109226041092270410922804E0
:103EB0001093F6030093F50329E334E03093F803FD
:103EC0002093F703C0920B04D0920C04E0920D04EF
:103ED000F0920E0440930F04509310046093110469
:103EE000709312048093130490931404A093150408
:103EF000B093160410920204109201041092070469
:103F0000109208041092090410920A0410920304FB
:103F1000109204041092050410920604DF91CF91D0
:103F20001F910F91FF90EF90DF90CF90BF90AF90D7
:103F30009F908F907F906F905F904F900895CF9358
:103F4000DF93CDB7DEB76B970FB6F894DEBF0FBE29
:103F5000CDBF789484B5826084BD84B5816084BD12
:103F600085B5826085BD85B5816085BD80916E0017
:103F7000816080936E001092810080918100826048
:103F80008093810080918100816080938100809185
:103F900080008160809380008091B1008460809374
:103FA000B1008091B00081608093B0008091910059
:103FB0008260809391008091910081608093910054
:103FC000809190008160809390008091A100826038
:103FD0008093A1008091A10081608093A1008091D5
:103FE000A00081608093A000809121018260809375
:103FF0002101809121018160809321018091200124
:1040000081608093200180917A00846080937A009F
:1040100080917A00826080937A0080917A0081603A
:1040200080937A0080917A00806880937A00109261
:10403000C10061E082E00E94C60261E08CE00E9463
:10404000C60261E087E00E94C60261E088E00E944B
:10405000C60261E089E00E94C60261E08AE00E9437
:10406000C60262E370E080E090E00E94440383E0D7
:1040700090E00E94800965E070E080E090E00E949E
:10408000440383E090E00E9480098BE891E001976F
:10409000F1F783E090E00E94800965E070E080E045
:1040A00090E00E94440382E090E00E94800982E058
:1040B00090E00E94800980910A0290910B02019782
:1040C00003E0880F991F0A95E1F70E9480090BEE23
:1040D00010E0C8010197F1F78CE090E00E947009B0
:1040E000C8010197F1F781E090E00E94700963E058
:1040F00070E080E090E00E94440386E090E00E943F
:10410000700961E070E080E090E00E94440388E381
:1041100098E0909345058093440582E893E090935E
:10412000100580930F058AEF90E0A0E0B0E0809347
:10413000FE049093FF04A0930005B093010584EC66
:1041400099E0A0E0B0E08093270590932805A09324
:104150002905B0932A058CE992E09A8389834091DE
:104160004B0550914C0560914D0570914E054B8368
:104170005C836D837E83998B888B40915105509130
:10418000520560915305709154054A8B5B8B6C8B83
:104190007D8B9F8B8E8B8091570590915805A091B8
:1041A0005905B0915A05888F998FAA8FBB8FAE01A0
:1041B0004F5F5F4FBE01605F7F4FCE0146960E940A
:1041C000AD0EC12CD12C7601C39463EB73E0CE010C
:1041D00001960E943D14CE0101960E943414892B51
:1041E00009F444C06AE070E080E090E00E9444037B
:1041F00005E817E0CE0101960E943414892B41F0A6
:10420000CE0101960E94EA15D8018D938D01F2CF5F
:1042100080918C0790E081309105B9F022E030E088
:1042200082309105A1F023E030E08330910599F0D0
:1042300024E030E08430910591F030E020E08530DA
:10424000910529F425E030E00DC021E030E0863012
:10425000910509F47EC08F30910509F47DC0409727
:1042600009F47DC030938A082093890880918908D9
:1042700090918A080197029708F084C080918D0779
:1042800090918E0798278927982720918F07309142
:104290009007322723273227A90137FF02C0495F41
:1042A0005F4FB3E055954795BA95E1F7BA0113E032
:1042B000660F771F1A95E1F76217730714F44F5FC3
:1042C0005F4F23E0240F20938A0740938D07EEE889
:1042D000F7E0312C212C241635060CF047C0108253
:1042E00030E020E05901A80EB91EB501A4E0769592
:1042F0006795AA95E1F726013701022E04C0440C08
:10430000551C661C771C0A94D2F790808B01000F15
:10431000111F055A1A4FA4E0660F771FAA95E1F7FF
:10432000A61AB70AD8016D917C9102C0769567955F
:10433000AA94E2F760FF16C0492840822F5F3F4FE2
:104340002830310579F6BFEF2B1A3B0A31960896D3
:10435000C2CF26E030E086CF2FE030E083CF20E1EF
:1043600030E080CF409494209082E8CF475F5F4F49
:1043700065E877E0CE0101960E948C1310928A08BE
:10438000109289088091890890918A080397029772
:10439000C8F5E0918D07F0918E07FE27EF27FE27E5
:1043A00080918F0790919007982789279827AC01D3
:1043B000440F551F23E0240F20938A0740938D0755
:1043C000EE0FFF1FE55AFA4FAEE8B7E030E020E00D
:1043D000281739075CF46081718132967C931196BD
:1043E0006C9311972F5F3F4F1296F2CF475F5F4F4D
:1043F00065E877E0CE0101960E948C1310928A083E
:10440000109289088091890890918A08059759F53A
:1044100000918D0710918E0710270127102780919A
:104420008F07909190078F3F910521F461E0C801BB
:104430000E94F10180918F0790919007892B21F4C0
:1044400060E0C8010E94F10182E080938A0748E0A1
:1044500050E065E877E0CE0101960E948C1310923F
:104460008A08109289088091890890918A08069795
:1044700019F5E0918D07F0918E07FE27EF27FE27B3
:10448000EE0FFF1FE55AFA4F80918F07909190072A
:104490009827892798279183808386E080938A07CD
:1044A0004CE050E065E877E0CE0101960E948C1365
:1044B00010928A08109289088091890890918A0840
:1044C0000F97F1F500918D0710918E0710270127A6
:1044D0001027A0908F07B0909007BA24AB24BA247D
:1044E00086E080938A07912C812C8A149B04E4F443
:1044F000F40193E0F595E7959A95E1F7EE56F84FBC
:10450000608170E0C4018770992702C07595679536
:104510008A95E2F76170C401800F911F0E94F1013A
:10452000EFEF8E1A9E0AE1CF4CE050E065E877E0AD
:10453000CE0101960E948C1310928A08109289086D
:104540008091890890918A084097A1F5E0918D07A4
:10455000F0918E07FE27EF27FE2740918F0750919D
:10456000900754274527542786E080938A07A2E9BD
:10457000B7E0EE0FFF1FE55AFA4F90E080E0841796
:10458000950764F42C9111963C91119723273227BB
:1045900023272193319301961296F1CF4CE050E0FE
:1045A00065E877E0CE0101960E948C1310928A088C
:1045B000109289088DEA94E00E944D0C20E030E0D2
:1045C00048EC52E40E941C280E94E82670935C0587
:1045D00060935B058DEA94E00E944D0C4B015C01F9
:1045E0002DEC3CEC4CE45DE30E94172818160CF00F
:1045F000DDC0A50194016091AF047091B004809179
:10460000B1049091B2040E94762620E030E048EC9C
:1046100052E40E941C280E94E82670935E05609375
:104620005D0583E794E00E944D0C20E030E048EC0B
:1046300052E40E941C280E94E82670936005609353
:104640005F0583E794E00E944D0C4B015C012DEC6B
:104650003CEC4CE45DE30E94172818160CF0AAC04D
:10466000A50194016091750470917604809177049E
:10467000909178040E94762620E030E048EC52E4E5
:104680000E941C280E94E8267093620560936105D1
:1046900089E394E00E944D0C20E030E048EC52E4C5
:1046A0000E941C280E94E8267093640560936305AD
:1046B00089E394E00E944D0C4B015C012DEC3CEC35
:1046C0004CE45DE30E94172818160CF077C0A50192
:1046D000940160913B0470913C0480913D04909161
:1046E0003E040E94762620E030E048EC52E40E942E
:1046F0001C280E94E82670936605609365058091EA
:104700001505882309F42EC28091130581115FC01D
:1047100001E010E0E0911905F0911A05809115056E
:104720008017110609F008F44FC0E00FF11F308028
:10473000F4E03F9E200111245801809117059091CB
:1047400018058090190590901A05350121E0621A2C
:104750007108F401E60DF71D20808A0C9B1CFC01FA
:10476000E40DF51D44E0249E90011124820F931F57
:10477000DC012D913D914D915C916081718182812F
:1047800093810E94712687FF1DC0F401208253018E
:104790006114710491F68091190590911A05680EC3
:1047A000791ED3013C920F5F1F4FB4CF60E070E0E1
:1047B000CB012BCF60E070E0CB015ECF60E070E01A
:1047C000CB0191CF3501E7CF81E080931305209194
:1047D0001505009117051091180540911905509184
:1047E0001A05E22FE695E40FF52FF11DA08144E0B4
:1047F000A49FD0011124A00FB11F6D917D918D91C7
:104800009C9120FD15C031972081A4E02A9F900142
:104810001124F801E20FF31F20813181428153817D
:104820000E94052620E030E040E05FE30E941C2863
:1048300020E030E040E251E40E941C280E94E8267B
:1048400070936C0560936B05E0911704F091180468
:10485000608D718D072E000C880B990B0E9420270C
:104860009B01AC0160911B0470911C0480911D049C
:1048700090911E040E94762620E030E048EC52E43D
:104880000E941C280E94E82670936E0560936D05B7
:104890009093700580936F05E091F503F091F60316
:1048A000608D718D072E000C880B990B0E942027BC
:1048B0009B01AC016091F9037091FA038091FB03B5
:1048C0009091FC030E94762620E030E048EC52E410
:1048D0000E941C280E94E82670937205609371055F
:1048E000909374058093730587E194E00E946F0CA8
:1048F00020E030E048EC52E40E941C280E94E826A8
:10490000709376056093750590937805809377058D
:1049100085EF93E00E946F0C20E030E048EC52E419
:104920000E941C280E94E82670937A0560937905FE
:1049300090937C0580937B0587E194E00E94C20CF4
:1049400020E030E048EC52E40E941C280E94E82657
:1049500070937E0560937D059093800580937F051D
:1049600085EF93E00E94C20C20E030E048EC52E476
:104970000E941C280E94E82670938205609381059E
:10498000909384058093830520E030E44CE156E465
:104990006091290470912A0480912B0490912C0439
:1049A0000E941C280E94E82670938A05609389055E
:1049B00090938C0580938B0520E030E44CE156E425
:1049C00060910704709108048091090490910A0491
:1049D0000E941C280E94E8266093480370934903B4
:1049E00080934A0390934B0370938E0560938D05DB
:1049F0009093900580938F0587E194E00E948D0C41
:104A000020E030E048EC52E40E941C280E94E82696
:104A1000709386056093850585EF93E00E948D0C69
:104A200020E030E048EC52E40E941C280E94E82676
:104A300070938805609387058091970590919805FC
:104A4000009741F090930102809300021092980524
:104A50001092970580919B0590919C050097B1F06D
:104A6000909349038093480380919D0590919E0502
:104A700090934B0380934A030E94760310929C0507
:104A800010929B0510929E0510929D0580912B051A
:104A9000882349F10E947603009123051091240593
:104AA00020912505309126054B015C01801A910A61
:104AB000A20AB30A00912705109128052091290523
:104AC00030912A05081519052A053B0560F4609305
:104AD00023057093240580932505909326058BE18B
:104AE00095E00E94F1040E9476030091ED0410917C
:104AF000EE042091EF043091F004601771078207F3
:104B00009307A9F14B015C01801A910AA20AB30A2A
:104B1000950184018090E7049090E804A090E90456
:104B2000B090EA04081519052A053B0598F0609332
:104B3000ED047093EE048093EF049093F004E09101
:104B4000EB04F091EC04309729F08091F10481118D
:104B500001C0199580E090E0892B09F436CB0E94C2
:104B6000000033CB60E070E080EC9FE761CE00E0B6
:104B700010E09801CFCFCF93DF93C3E1D5E08C81D4
:104B80009D810E94E0298E819F81DF91CF910C94BD
:104B9000E029A1E21A2EAA1BBB1BFD010DC0AA1F12
:104BA000BB1FEE1FFF1FA217B307E407F50720F096
:104BB000A21BB30BE40BF50B661F771F881F991F11
:104BC0001A9469F760957095809590959B01AC015A
:104BD000BD01CF010895EE0FFF1F881F8BBF079007
:104BE000F691E02D19949F939F770E945B270F9079
:104BF000002042F49058A2EA2AED3FE049E450E454
:104C00000E941C260C94DD275058BB27AA270E941F
:104C10001C260C94DD270E94CF2738F00E94D6274F
:104C200020F039F49F3F19F426F40C94A5270EF4D4
:104C3000E095E7FB0C949F27E92F0E94EE2758F39D
:104C4000BA17620773078407950720F079F4A6F571
:104C50000C9410280EF4E0950B2EBA2FA02D0B010A
:104C6000B90190010C01CA01A0011124FF27591BB1
:104C700099F0593F50F4503E68F11A16F040A22FB7
:104C8000232F342F4427585FF3CF46953795279528
:104C9000A795F0405395C9F77EF41F16BA0B620B27
:104CA000730B840BBAF09150A1F0FF0FBB1F661F6E
:104CB000771F881FC2F70EC0BA0F621F731F841FB1
:104CC00048F4879577956795B795F7959E3F08F0D7
:104CD000B0CF9395880F08F09927EE0F9795879599
:104CE00008950E947B2708F481E008950E948A2697
:104CF0000C94DD270E94D62758F00E94CF2740F061
:104D000029F45F3F29F00C949F2751110C9411282E
:104D10000C94A5270E94EE2768F39923B1F355233D
:104D200091F3951B550BBB27AA27621773078407BE
:104D300038F09F5F5F4F220F331F441FAA1FA9F354
:104D400035D00E2E3AF0E0E832D091505040E69542
:104D5000001CCAF72BD0FE2F29D0660F771F881FA3
:104D6000BB1F261737074807AB07B0E809F0BB0B96
:104D7000802DBF01FF2793585F4F3AF09E3F5105AA
:104D800078F00C949F270C9411285F3FE4F3983E31
:104D9000D4F3869577956795B795F7959F5FC9F793
:104DA000880F911D9695879597F90895E1E0660F14
:104DB000771F881FBB1F621773078407BA0720F08D
:104DC000621B730B840BBA0BEE1F88F7E0950895F6
:104DD0000E94EF266894B1110C94112808950E9446
:104DE000F62788F09F5798F0B92F9927B751B0F060
:104DF000E1F0660F771F881F991F1AF0BA95C9F75F
:104E000014C0B13091F00E941028B1E008950C94C4
:104E10001028672F782F8827B85F39F0B93FCCF377
:104E2000869577956795B395D9F73EF490958095DB
:104E3000709561957F4F8F4F9F4F0895E89409C0FB
:104E400097FB3EF490958095709561957F4F8F4FBD
:104E50009F4F9923A9F0F92F96E9BB279395F695D3
:104E6000879577956795B795F111F8CFFAF4BB0F51
:104E700011F460FF1BC06F5F7F4F8F4F9F4F16C0B5
:104E8000882311F096E911C0772321F09EE8872F3F
:104E9000762F05C0662371F096E8862F70E060E0FB
:104EA0002AF09A95660F771F881FDAF7880F969574
:104EB000879597F90895DF93CF931F930F938B01F5
:104EC000EC01E4EEF0E00E94A8270E94DD279801A3
:104ED000AE018B01EC0160E070E080E89FE30E948E
:104EE00004260E9497289801AE010F911F91CF913F
:104EF000DF910C942F28990F0008550FAA0BE0E8BA
:104F0000FEEF16161706E807F907C0F0121613068B
:104F1000E407F50798F0621B730B840B950B39F4CB
:104F20000A2661F0232B242B252B21F408950A2631
:104F300009F4A140A6958FEF811D811D089597F971
:104F40009F6780E870E060E008959FEF80EC08952F
:104F5000DF93CF931F930F93FF92EF92DF927B012A
:104F60008C01689406C0DA2EEF010E942F28FE0102
:104F7000E894A5912591359145915591A6F3EF01BE
:104F80000E941C26FE019701A801DA9469F7DF90C0
:104F9000EF90FF900F911F91CF91DF910895002422
:104FA0000A941616170618060906089500240A948E
:104FB00012161306140605060895092E0394000C14
:104FC00011F4882352F0BB0F40F4BF2B11F460FFA3
:104FD00004C06F5F7F4F8F4F9F4F089557FD9058CC
:104FE000440F551F59F05F3F71F04795880F97FBAD
:104FF000991F61F09F3F79F0879508951216130667
:105000001406551FF2CF4695F1DF08C01616170695
:105010001806991FF1CF86957105610508940895CA
:10502000E894BB2766277727CB0197F908950E945C
:105030007B2708F48FEF08950E942F280C94DD271A
:105040000E94CF2738F00E94D62720F0952311F038
:105050000C949F270C94A52711240C9411280E94CE
:10506000EE2770F3959FC1F3950F50E0551F629F97
:10507000F001729FBB27F00DB11D639FAA27F00DB1
:10508000B11DAA1F649F6627B00DA11D661F829FD8
:105090002227B00DA11D621F739FB00DA11D621FBD
:1050A000839FA00D611D221F749F3327A00D611DDA
:1050B000231F849F600D211D822F762F6A2F1124BC
:1050C0009F5750409AF0F1F088234AF0EE0FFF1FEF
:1050D000BB1F661F771F881F91505040A9F79E3F46
:1050E000510580F00C949F270C9411285F3FE4F346
:1050F000983ED4F3869577956795B795F795E7959C
:105100009F5FC1F7FE2B880F911D9695879597F9A4
:1051100008959F930E94F3280F9007FCEE5F0C9474
:105120001C2919F416F40C94A5270C94DC280E9471
:10513000F627B8F39923C9F3B6F39F57550B87FFAA
:105140000E94EA280024A0E640EA90018058569583
:10515000979528F4805C660F771F881F20F026172C
:105160003707480730F4621B730B840B2029312961
:105170004A2BA69517940794202531254A2758F7DE
:10518000660F771F881F20F026173707480730F46F
:10519000620B730B840B200D311D411DA09581F70F
:1051A000B901842F9158880F9695879508950E948C
:1051B0007B27880B990B08959F3F31F0915020F485
:1051C000879577956795B795880F911D96958795E3
:1051D00097F9089591505040660F771F881FD2F7B6
:1051E00008950C94A5270E94F627D8F3E894E0E0F0
:1051F000BB279F57F0F02AED3FE049EC06C0EE0FC9
:10520000BB0F661F771F881F28F0B23A620773072B
:10521000840728F0B25A620B730B840BE3959A95BE
:1052200072F7803830F49A95BB0F661F771F881F7E
:10523000D2F790480C94DE28EF93E0FF07C0A2EA73
:105240002AED3FE049EC5FEB0E941C260E94DD271F
:105250000F90039401FC9058ECE0F1E00C9430299D
:105260009F938F937F936F93FF93EF939B01AC0179
:105270000E941C28EF91FF910E94A8272F913F9137
:105280004F915F910C941C280F931F93CF93DF9342
:105290008230910510F482E090E0E0919308F09163
:1052A000940830E020E0B0E0A0E0309799F42115B8
:1052B000310509F44AC0281B390B24303105D8F5D3
:1052C0008A819B816115710589F1FB01938382833A
:1052D000FE0111C040815181028113814817590795
:1052E000E0F04817590799F4109761F012960C9363
:1052F000129713961C933296CF01DF91CF911F9195
:105300000F9108950093930810939408F4CF2115FA
:10531000310551F04217530738F0A901DB019A011A
:10532000BD01DF01F801C1CFEF01F9CF90939408DF
:1053300080939308CDCFFE01E20FF31F81939193E9
:105340002250310939832883D7CF20919108309199
:105350009208232B41F420910E0230910F023093DA
:1053600092082093910820910C0230910D02211592
:10537000310541F42DB73EB7409110025091110212
:10538000241B350BE0919108F0919208E217F30786
:10539000A0F42E1B3F0B2817390778F0AC014E5FA5
:1053A0005F4F2417350748F04E0F5F1F5093920848
:1053B00040939108819391939FCFF0E0E0E09CCFE0
:1053C000CF93DF930097E9F0FC01329713821282AA
:1053D000A0919308B0919408ED0130E020E010977F
:1053E000A1F420813181820F931F20919108309187
:1053F00092082817390709F061C0F0939208E093EA
:105400009108DF91CF910895EA01CE17DF07E8F503
:105410004A815B819E0141155105B1F7E901FB838A
:10542000EA8349915991C40FD51FEC17FD0761F428
:10543000808191810296840F951FE9019983888369
:10544000828193819B838A83F0E0E0E012968D91C4
:105450009C9113970097B9F52D913C911197CD012F
:105460000296820F931F209191083091920828177D
:10547000390739F6309751F5109294081092930835
:10548000B0939208A0939108BCCFD383C28340818C
:105490005181840F951FC817D90761F44E5F5F4F84
:1054A00088819981480F591F518340838A819B814C
:1054B000938382832115310509F0B0CFF0939408CE
:1054C000E09393089ECFFD01DC01C0CF13821282CE
:1054D000D7CF81E090E0F8940C94752ADC0101C0EC
:1054E0006D9341505040E0F7089511E0CAEBD1E0D0
:1054F00000E006C0802FFE010E94EB252196011DD1
:0E550000CB3BD10780E00807A9F7F894FFCF56
:10550E000A0000C0DEADBE0001FD020000009508DD
:10551E00800001005E00000000000000C807A71315
:10552E00350830022C022C166E1016187111B10DA2
:10553E00DF071F1B530E56160D162E081E081A08CF
:10554E0016080000000021068C132C1317133414B8
:10555E00EA1554106A17941A0416EE0DCC0D600657
:10556E005D065B06160651061F12DD11B2114D06C1
:10557E00000000003706C41435086806E617270E2B
:10558E0000000000070C6504000000004D0B8C09A4
:10559E00000000009F0BF104000000001F0A6E6166
:1055AE006E00696E66006F7666007B70696E3A00FB
:1055BE0020696E707574547970653A0020706F6C46
:1055CE006C696E67496E74657276616C3A00706FC5
:1055DE006C6C696E67456E61626C65643A00207D25
:1055EE00000D0A007B72617720696E3A00207363AA
:1055FE00616C65642053616D706C653A0020646562
:10560E00616462616E643A0065754D696E3A00655B
:10561E00754D61783A007B63757272656E74537462
:10562E006174653A00206465626F756E63655469D6
:10563E006D653A00206D7320656467654465746519
:08564E006374547970653A00A1
:00000001FF
