:100000000C9462000C948A000C948A000C948A0070
:100010000C948A000C948A000C948A000C948A0038
:100020000C948A000C948A000C948A000C948A0028
:100030000C948A000C948A000C948A000C948A0018
:100040000C9413030C948A000C948A000C948A007C
:100050000C948A000C948A000C948A000C948A00F8
:100060000C948A000C948A000000000024002700F1
:100070002A0000000000250028002B0000000000DE
:1000800023002600290004040404040404040202DA
:100090000202020203030303030301020408102007
:1000A0004080010204081020010204081020000012
:1000B0000007000201000003040600000000000029
:1000C0000000A90211241FBECFEFD8E0DEBFCDBFD4
:1000D00011E0A0E0B1E0EEEEF9E002C005900D9273
:1000E000A037B107D9F711E0A0E7B1E001C01D9238
:1000F000AC37B107E1F710E0C4ECD0E004C02297C0
:10010000FE010E94BA04C23CD107C9F70E940C0349
:100110000C94F5040C940000A0E0B0E0E2E9F0E0FB
:100120000C94C604EC01A880B980CA80DB80A114BD
:10013000B104C104D10441F484E2A82E89EDB82EA3
:100140008BE5C82E87E0D82EC601B5012DE133EF2F
:1001500041E050E00E947B0427EA31E440E050E0B7
:100160000E945C047B018C01C601B5012DE133EFD7
:1001700041E050E00E947B04CA01B9012CEE34EF4B
:100180004FEF5FEF0E945C046E0D7F1D801F911F7B
:1001900097FF04C061507040804090486883798325
:1001A0008A839B839B01AC015F77B901CA01CDB7FC
:1001B000DEB7EAE00C94E2040E948C00089580E02F
:1001C00091E00E948C0008956093000170930101FA
:1001D000809302019093030108957093130160933B
:1001E0001201615070406230710530F081E090E0A2
:1001F000909313018093120108958091080160E0AB
:100200000E94ED0381E090E00E9485038091080147
:1002100061E00E94ED0381E090E00E9485038091FF
:10022000080160E00E94ED0361E070E080E090E092
:100230000E945B030895EF92FF920F931F93CF9359
:10024000DF937C018B010F701070C0910A01D09177
:100250000B0108C0602F61708C2F0E94ED03159573
:100260000795219680911001909111018C179D079F
:100270008CF7C7010E94FD00DF91CF911F910F9174
:10028000FF90EF900895EF92FF920F931F938C01D0
:100290007B0194E0759567959A95E1F7C8010E94F6
:1002A0001B018FE0E822FF24C801B7010E941B0157
:1002B0001F910F91FF90EF9008950F931F93CF938D
:1002C000DF93EC018B018091040160E00E94ED035B
:1002D0008091700190917101892B29F08091060124
:1002E00060E00E94ED03CE01B8010E941B01DF9186
:1002F000CF911F910F9108950F931F93CF93DF9389
:10030000EC018B018091040161E00E94ED0380917A
:10031000700190917101892B29F08091060160E0B4
:100320000E94ED03CE01B8010E944301DF91CF91FD
:100330001F910F910895CF92DF92FF920F931F9319
:10034000CF93DF936C018B01FF240AC0C00FD11F34
:100350006881772767FD7095C6010E947C01F39440
:10036000CF2DD0E0F80101900020E9F73197E01B94
:10037000F10BCE17DF0750F3DF91CF911F910F9153
:10038000FF90DF90CF9008950F931F93CF93DF934B
:10039000EC018B018091040160E00E94ED038091EB
:1003A000700190917101892B29F08091060160E024
:1003B0000E94ED03CE01B8010E944301DF91CF916D
:1003C0001F910F910895AF92BF92CF92DF92EF925B
:1003D000FF920F931F93CF93DF935C016B01C0E0FB
:1003E000D0E07A010027F7FC0095102F0AC0C50164
:1003F00068E170E00E94C401C801B7010E945B037C
:100400002196CC15DD059CF3DF91CF911F910F91C3
:10041000FF90EF90DF90CF90BF90AF900895CF9373
:10042000DF93EC018091080161E00E94CD0380918F
:10043000040161E00E94CD038091700190917101EF
:10044000892B29F08091060161E00E94CD03809103
:100450000A0161E00E94CD0380910C0161E00E94DD
:10046000CD0380910E0161E00E94CD0380911001C7
:1004700061E00E94CD0362E370E080E090E00E94C2
:100480005B03CE0163E070E00E945D0165E070E017
:1004900080E090E00E945B03CE0163E070E00E9488
:1004A0005D0184E690E00E948503CE0163E070E088
:1004B0000E945D0165E070E080E090E00E945B03D7
:1004C000CE0162E070E00E945D01CE0162E070E06A
:1004D0000E945D01609112017091130161507040A2
:1004E00023E0660F771F2A95E1F7CE010E945D0198
:1004F0008CE390E00E948503CE016CE070E00E94E6
:10050000C4018CE390E00E948503CE0161E070E0BD
:100510000E94C40163E070E080E090E00E945B0311
:10052000CE0166E070E00E94C40161E070E080E00E
:1005300090E00E945B03DF91CF91089561E070E04D
:100540000E94C40161E070E080E090E00E945B03E3
:10055000089582E791E061E070E00E94ED00089567
:10056000EF92FF920F931F93CF93DF938DE061E0A3
:100570000E94ED0360916E0170916F01882777FDF5
:100580008095982F0E943A047B018C0182E791E0CC
:100590000E949E02B70184E0660F771F8A95E1F7FB
:1005A0006E197F096C5E7E4F82E791E00E949B018D
:1005B00068EE73E080E090E00E945B038DE060E015
:1005C0000E94ED03C0E0D0E082E791E06EE270E0CF
:1005D0000E947C0164E670E080E090E00E945B0392
:1005E0002196C330D10581F782E791E064E170E0A4
:1005F00042E350E00E94E301DF91CF911F910F9100
:10060000FF90EF9008958DE061E00E94CD0382E7B6
:1006100091E00E940F0208950E9493030E94030339
:100620000E94B002FDCF1F920F920FB60F921124BD
:100630002F933F938F939F93AF93BF9380917701B5
:1006400090917801A0917901B0917A0130917B016C
:100650000196A11DB11D232F2D5F2D3720F02D57A1
:100660000196A11DB11D20937B018093770190938A
:100670007801A0937901B0937A01809173019091F0
:100680007401A0917501B09176010196A11DB11D73
:100690008093730190937401A0937501B0937601D8
:1006A000BF91AF919F918F913F912F910F900FBE6E
:1006B0000F901F901895EF92FF920F931F937B015D
:1006C0008C018FB7F8944091770150917801609137
:1006D000790170917A018FBF2FB7F89480917701DB
:1006E00090917801A0917901B0917A012FBF841B7C
:1006F000950BA60BB70BE816F9060A071B0760F760
:100700001F910F91FF90EF900895019759F0FC0110
:10071000EE0FFF1FEE0FFF1F32978FB7F894319740
:10072000F1F78FBF0895789484B5826084BD84B555
:10073000816084BD85B5826085BD85B5816085BDDC
:10074000EEE6F0E0808181608083E1E8F0E0808186
:1007500082608083808181608083E0E8F0E0808136
:1007600081608083E1EBF0E0808184608083E0EB56
:10077000F0E0808181608083EAE7F0E0808184603E
:10078000808380818260808380818160808380819A
:10079000806880831092C1000895282F30E0C9013D
:1007A00086569F4FFC0194912A573F4FF90184913F
:1007B000882391F0E82FF0E0EE0FFF1FE859FF4F7C
:1007C000A591B491662329F48C91909589238C93FB
:1007D00008958C91892B8C930895482F50E0CA017D
:1007E00082559F4FFC012491CA0186569F4FFC0100
:1007F00094914A575F4FFA0134913323D1F1222368
:1008000031F1233021F4809180008F7705C02430AE
:1008100031F4809180008F7D8093800018C021305A
:1008200019F484B58F7704C0223021F484B58F7D0C
:1008300084BD0DC0263021F48091B0008F7705C0B3
:10084000273029F48091B0008F7D8093B000E32F92
:10085000F0E0EE0FFF1FEE58FF4FA591B491662315
:1008600029F48C91909589238C9308958C91892BF0
:100870008C930895EF92FF920F931F937B018C014D
:10088000611571058105910529F420E030E040E013
:1008900050E00BC00E94DF00A80197010E947B047A
:1008A000AC01CB01DA019C01AD01B901CA011F9174
:1008B0000F91FF90EF900895629FD001739FF00118
:1008C000829FE00DF11D649FE00DF11D929FF00DE0
:1008D000839FF00D749FF00D659FF00D9927729F17
:1008E000B00DE11DF91F639FB00DE11DF91FBD01A2
:1008F000CF011124089597FB092E05260ED057FD30
:1009000004D014D00AD0001C38F45095409530958E
:1009100021953F4F4F4F5F4F0895F6F79095809583
:10092000709561957F4F8F4F9F4F0895A1E21A2ECA
:10093000AA1BBB1BFD010DC0AA1FBB1FEE1FFF1F83
:10094000A217B307E407F50720F0A21BB30BE40BD3
:10095000F50B661F771F881F991F1A9469F760951A
:100960007095809590959B01AC01BD01CF010895D4
:10097000EE0FFF1F0590F491E02D09942F923F9206
:100980004F925F926F927F928F929F92AF92BF929F
:10099000CF92DF92EF92FF920F931F93CF93DF934B
:1009A000CDB7DEB7CA1BDB0B0FB6F894DEBF0FBEA8
:1009B000CDBF09942A88398848885F846E847D84F5
:1009C0008C849B84AA84B984C884DF80EE80FD80F7
:1009D0000C811B81AA81B981CE0FD11D0FB6F8946D
:0E09E000DEBF0FBECDBFED010895F894FFCF2E
:1009EE00010000000C000B000200070008000900C7
:1009FE000A0002006170706C6500000000000000CB
:100A0E0000000062616E616E610000000000000077
:100A1E00000070696E656170706C6500000000000A
:100A2E00006D616E676F00000000000000000000A6
:100A3E0077617465726D656C6F6E000000000070FA
:100A4E00656172000000000000000000000006005A
:00000001FF
